:100000000C94A4080C94C1080C94C1080C94ED0F36
:100010000C94C1080C94C1080C94C1080C94C1083C
:100020000C94C1080C94C1080C9424120C94C108BF
:100030000C94C1080C9493120C9403120C94C108F4
:100040000C94C1080C94C1080C9419140C94C108A8
:100050000C94C1080C9463110C94C1080C94C10851
:100060000C94C1080C94C1086E616E00696E660044
:1000700000407A10F35A00A0724E18090010A5D45F
:10008000E80000E87648170000E40B54020000CABC
:100090009A3B000000E1F505000080969800000002
:1000A00040420F000000A086010000001027000061
:1000B0000000E803000000006400000000000A00E7
:1000C000000000000100000000002C76D888DC67EA
:1000D0004F0823DFC1DFAE59E1B1B796E5E3E45342
:1000E000C63AE651997696E8E6C28426EB898C9B5F
:1000F00062ED407C6FFCEFBC9C9F40F2BAA56FA5FF
:10010000F490055A2AF75C936B6CF9676DC11BFC80
:10011000E0E40D47FEF520E6B500D0ED902E03009B
:10012000943577050080841E080000204E0A0000E8
:1001300000C80C333333330F986E12831141EF8DA7
:100140002114893BE65516CFFEE6DB18D1844B38E7
:100150001BF77C1D901DA4BBE424203284725E2218
:100160008100C9F124ECA1E53D2722676574437540
:100170007272656E742220636F6D6D616E642067AC
:10018000657473207468652063757272656E74207F
:100190006F6E206D6F746F7249442E0D0A49742082
:1001A000657870656374732074686520666F6C6C25
:1001B0006F77696E6720617267756D656E74733AEB
:1001C0000D0A202020206D6F746F724944202D206D
:1001D0004D757374206265206F6E65206F66207B9D
:1001E000412C20422C20437D20616E64207265707A
:1001F000726573656E7473207768696368206D6FCC
:10020000746F7220746F2073656C6563742E0D0AB1
:1002100049742073686F776C642062652063616C39
:100220006C656420617320666F6C6C6F77733A0D38
:100230000A2020202067657443757272656E7420F1
:100240006D6F746F7249440D0A616E642077696C3A
:100250006C207072696E742074686520666F6C6CB7
:100260006F77696E67206966207375636365737362
:1002700066756C3A0D0A2020202043757272656EF7
:10028000740D0A00226765744D617843757272655A
:100290006E742220636F6D6D616E64206765747388
:1002A00020746865206D6178696D756D2063757265
:1002B00072656E742074686174206D6F746F72491A
:1002C000442063616E2072656163682E0D0A497473
:1002D00020657870656374732074686520666F6C40
:1002E0006C6F77696E6720617267756D656E747388
:1002F0003A0D0A202020206D6F746F724944202D22
:10030000204D757374206265206F6E65206F6620C6
:100310007B412C20422C20437D20616E642072653D
:1003200070726573656E7473207768696368206D99
:100330006F746F7220746F2073656C6563742E0D1B
:100340000A49742073686F776C642062652063616A
:100350006C6C656420617320666F6C6C6F77733AA8
:100360000D0A202020206765744D617843757272F4
:10037000656E74206D6F746F7249440D0A616E640E
:100380002077696C6C207072696E742074686520C7
:10039000666F6C6C6F77696E672069662073756332
:1003A0006365737366756C3A0D0A202020206D61B9
:1003B0007843757272656E740D0A00227365744D10
:1003C000617843757272656E742220636F6D6D6122
:1003D0006E64207365747320746865206D6178693C
:1003E0006D756D2063757272656E742074686174CA
:1003F000206D6F746F7249442063616E2072656175
:1004000063682E0D0A4974206578706563747320E3
:1004100074686520666F6C6C6F77696E67206172B7
:1004200067756D656E74733A0D0A202020206D6F1C
:10043000746F724944202D204D75737420626520BD
:100440006F6E65206F66207B412C20422C20437DFF
:1004500020616E6420726570726573656E747320BE
:100460007768696368206D6F746F7220746F207392
:10047000656C6563742E0D0A202020206D61784321
:10048000757272656E74202D204861732072616EE2
:100490006765205B306D412C20313030306D415D1F
:1004A00020616E6420726570726573656E7473206E
:1004B0007468652063757272656E74206D61786909
:1004C0006D756D2076616C75652E0D0A497420730B
:1004D000686F776C642062652063616C6C65642072
:1004E000617320666F6C6C6F77733A0D0A20202061
:1004F000207365744D617843757272656E74206DFA
:100500006F746F724944206D617843757272656EC5
:10051000740D0A00226765744C696D697453772203
:1005200020636F6D6D616E642067657473206D6FFD
:10053000746F7249442063757272656E74206C69C1
:100540006D6974207377697463682073746174755E
:10055000732E0D0A49742065787065637473207476
:10056000686520666F6C6C6F77696E672061726773
:10057000756D656E74733A0D0A202020206D6F74BE
:100580006F724944202D204D757374206265206F71
:100590006E65206F66207B412C20422C20437D20FD
:1005A000616E6420726570726573656E7473207716
:1005B00068696368206D6F746F7220746F20736553
:1005C0006C6563742E0D0A49742073686F776C64D0
:1005D0002062652063616C6C656420617320666FC6
:1005E0006C6C6F77733A0D0A202020206765744C7D
:1005F000696D69745377206D6F746F7249440D0A89
:10060000616E642077696C6C207072696E74206F03
:100610006E652074686520666F6C6C6F77696E67B5
:10062000206966207375636365737366756C3A0D34
:100630000A20202020466F7277617264206C696DF9
:1006400069740D0A2020202052657665727365203A
:100650006C696D69740D0A20202020467265650D55
:100660000A002267657453706565642220636F6DAC
:100670006D616E642067657473206D6F746F72496D
:10068000442063757272656E742073706565642EA4
:100690000D0A497420657870656374732074686509
:1006A00020666F6C6C6F77696E6720617267756D1D
:1006B000656E74733A0D0A202020206D6F746F727E
:1006C0004944202D204D757374206265206F6E653E
:1006D000206F66207B412C20422C20437D20616EC0
:1006E0006420726570726573656E747320776869D3
:1006F0006368206D6F746F7220746F2073656C6512
:1007000063742E0D0A49742073686F776C642062DD
:10071000652063616C6C656420617320666F6C6C2E
:100720006F77733A0D0A2020202067657453706537
:100730006564206D6F746F7249440D0A616E6420A8
:1007400077696C6C207072696E74207468652066BD
:100750006F6C6C6F77696E67206966207375636371
:1007600065737366756C3A0D0A20202020737065DE
:1007700065642C2064726976652073746174650DFC
:100780000A002273657453706565642220636F6D7F
:100790006D616E642073657473206D6F746F724940
:1007A000442063757272656E742073706565642E83
:1007B0000D0A4974206578706563747320746865E8
:1007C00020666F6C6C6F77696E6720617267756DFC
:1007D000656E74733A0D0A202020206D6F746F725D
:1007E0004944202D204D757374206265206F6E651D
:1007F000206F66207B412C20422C20437D20616E9F
:100800006420726570726573656E747320776869B1
:100810006368206D6F746F7220746F2073656C65F0
:1008200063742E0D0A202020207370656564202DCE
:10083000204D75737420626520616E20696E746549
:100840006765722076616C756520696E20746865D5
:100850002072616E6765205B2D313030252C203190
:100860003030255D20726570726573656E74696ED7
:10087000670D0A2020202020202020746865206D2C
:100880006F746F722073706565642E0D0A49742051
:1008900073686F776C642062652063616C6C65645B
:1008A00020617320666F6C6C6F77733A0D0A20209D
:1008B00020207365745370656564206D6F746F726A
:1008C00049442073706565640D0A00226765744DA4
:1008D000696E53706565642220636F6D6D616E642F
:1008E000206765747320746865206D696E696D7525
:1008F0006D2073706565642074686174206D6F7419
:100900006F7249442063616E2072656163682E0DC9
:100910000A49742065787065637473207468652073
:10092000666F6C6C6F77696E6720617267756D6555
:100930006E74733A0D0A202020206D6F746F724917
:1009400044202D204D757374206265206F6E6520E4
:100950006F66207B412C20422C20437D20616E64F9
:1009600020726570726573656E7473207768696351
:1009700068206D6F746F7220746F2073656C65638F
:10098000742E0D0A49742073686F776C6420626559
:100990002063616C6C656420617320666F6C6C6FA2
:1009A00077733A0D0A202020206765744D696E53D5
:1009B00070656564206D6F746F724944206D696E57
:1009C00053706565640D0A616E642077696C6C20F4
:1009D0007072696E742074686520666F6C6C6F77D6
:1009E000696E6720696620737563636573736675E6
:1009F0006C3A0D0A202020206D696E537065656485
:100A00000D0A00227365744D696E5370656564222A
:100A100020636F6D6D616E642073657473207468FC
:100A200065206D696E696D756D20737065656420F4
:100A300074686174206D6F746F7249442063616ED5
:100A40002072656163682E0D0A49742065787065AF
:100A50006374732074686520666F6C6C6F77696E61
:100A60006720617267756D656E74733A0D0A202098
:100A700020206D6F746F724944202D204D75737462
:100A8000206265206F6E65206F66207B412C2042BE
:100A90002C20437D20616E642072657072657365E1
:100AA0006E7473207768696368206D6F746F72204D
:100AB000746F2073656C6563742E0D0A20202020EE
:100AC0006D696E5370656564202D204861732072D6
:100AD000616E6765205B30252C20313030255D202C
:100AE000616E6420726570726573656E74732074D4
:100AF0006865207370656564206D696E696D756DDC
:100B0000206162736F6C7574652076616C75652EFB
:100B10000D0A49742073686F776C642062652063E6
:100B2000616C6C656420617320666F6C6C6F7773A9
:100B30003A0D0A202020207365744D696E5370654C
:100B40006564206D6F746F724944206D696E5370D7
:100B50006565640D0A00226765744D6178537065A0
:100B600065642220636F6D6D616E642067657473C8
:100B700020746865206D6178696D756D207370658E
:100B800065642074686174206D6F746F72494420CD
:100B900063616E2072656163682E0D0A4974206579
:100BA0007870656374732074686520666F6C6C6F11
:100BB00077696E6720617267756D656E74733A0D43
:100BC0000A202020206D6F746F724944202D204D23
:100BD000757374206265206F6E65206F66207B419F
:100BE0002C20422C20437D20616E6420726570723F
:100BF0006573656E7473207768696368206D6F74C0
:100C00006F7220746F2073656C6563742E0D0A49D2
:100C1000742073686F776C642062652063616C6C0C
:100C2000656420617320666F6C6C6F77733A0D0A90
:100C3000202020206765744D6178537065656420BD
:100C40006D6F746F724944206D617853706565648F
:100C50000D0A616E642077696C6C207072696E7425
:100C60002074686520666F6C6C6F77696E672069A9
:100C700066207375636365737366756C3A0D0A203D
:100C80002020206D617853706565640D0A00227321
:100C900065744D617853706565642220636F6D6D76
:100CA000616E64207365747320746865206D61786B
:100CB000696D756D2073706565642074686174205A
:100CC0006D6F746F7249442063616E207265616359
:100CD000682E0D0A497420657870656374732074FA
:100CE000686520666F6C6C6F77696E6720617267EC
:100CF000756D656E74733A0D0A202020206D6F7437
:100D00006F724944202D204D757374206265206FE9
:100D10006E65206F66207B412C20422C20437D2075
:100D2000616E6420726570726573656E747320778E
:100D300068696368206D6F746F7220746F207365CB
:100D40006C6563742E0D0A202020206D617853702D
:100D5000656564202D204861732072616E6765208F
:100D60005B30252C20313030255D20616E6420728F
:100D70006570726573656E74732074686520737036
:100D8000656564206D6178696D756D206162736F52
:100D90006C7574652076616C75652E0D0A4974203A
:100DA00073686F776C642062652063616C6C656446
:100DB00020617320666F6C6C6F77733A0D0A202088
:100DC00020207365744D61785370656564206D6F84
:100DD000746F724944206D617853706565640D0AC3
:100DE00000506F736974696F6E20636F6E74726FF9
:100DF0006C6572205B417574686F723A204E756E37
:100E00006F20536F7573612C204669726D77617224
:100E1000652076657273696F6E3A2000227665727E
:100E200073696F6E2220636F6D6D616E64207072E6
:100E3000696E7473207468652073797374656D20AE
:100E4000696E666F2E0D0A49742073686F776C6443
:100E50002062652063616C6C656420617320666F3D
:100E60006C6C6F77733A0D0A2020202076657273C0
:100E7000696F6E0D0A00466F722068656C70206F96
:100E80006E206120636F6D6D616E64206F6E2074E3
:100E9000686520666F6C6C6F77696E67206C69732C
:100EA000742C20747970652068656C7020636F6D98
:100EB0006D616E642D6E616D653A0D0A2020686566
:100EC0006C7020202020202020202020202054680A
:100ED000697320636F6D6D616E642E0D0A2020763C
:100EE000657273696F6E2020202020202020205002
:100EF00072696E7473206669726D776172652076AF
:100F0000657273696F6E20696E666F2E0D0A202000
:100F10007365744D617853706565642020202020CE
:100F200053657473206D6F746F72206D61782073D8
:100F3000706565642E0D0A20206765744D617853D5
:100F400070656564202020202047657473206D6FD4
:100F5000746F72206D61782073706565642E0D0A60
:100F600020207365744D696E537065656420202080
:100F7000202053657473206D6F746F72206D696EDD
:100F80002073706565642E0D0A20206765744D69B5
:100F90006E5370656564202020202047657473209F
:100FA0006D6F746F72206D696E2073706565642E4D
:100FB0000D0A20207365745370656564202020201D
:100FC00020202020436F6D6D616E64206D6F746F03
:100FD000722073706565642E0D0A20206765745356
:100FE00070656564202020202020202047657473D0
:100FF000206D6F746F722063757272656E742073EA
:10100000706565642E0D0A20206765744C696D69F2
:1010100074537720202020202047657473206C694A
:101020006D69742073776974636865732063757282
:1010300072656E742073746174652E0D0A202073BE
:1010400065744D617843757272656E74202020530B
:10105000657473206D6F746F72206D6178206C6998
:101060006D6974696E672063757272656E742E0D9A
:101070000A20206765744D617843757272656E74DD
:1010800020202047657473206D6F746F72206D612E
:1010900078206C696D6974696E672063757272651A
:1010A0006E742E0D0A202067657443757272656E2A
:1010B0007420202020202047657473206D6F746F8A
:1010C000722063757272656E742E0D0A0022686557
:1010D0006C702220636F6D6D616E64207072696E3A
:1010E00074732061206C697374206F662074686566
:1010F00020617661696C61626C6520636F6D6D6102
:101100006E64730D0A616E642061206272696566A7
:101110002073756D6D6172792E0D0A4974207368A4
:101120006F776C642062652063616C6C656420611C
:101130007320666F6C6C6F77733A0D0A2020202045
:1011400068656C700D0A000011241FBECFEFD8E057
:10115000DEBFCDBF13E0A0E0B1E0E2E9F9E402C0F8
:1011600005900D92AE33B107D9F726E0AEE3B3E0B8
:1011700001C01D92AC3EB207E1F70E94621F0C94C1
:10118000C7240C940000FC0131832083DB011197FC
:10119000A49FC001A59F900DB49F900D1124820FB4
:1011A000931F93838283758364831782168251878A
:1011B000408733872287358724870895CF93DF932D
:1011C000EC012E813F818C819D8128173907C1F068
:1011D000488559858A859B850E94C9222A853B8539
:1011E00088859985820F931F9B878A872A813B81F7
:1011F0002817390740F08E819F8101969F838E8347
:10120000DF91CF910895888199819B878A87F3CF59
:10121000CF93DF93FC0186819781892BB9F04085BC
:10122000518522853385241B350B338722878081A6
:1012300091812817390768F0CB01EF01B9010E94AD
:10124000C9228E819F8101979F838E83DF91CF91E9
:1012500008952281338133872287EECFCF93DF93A6
:10126000EC018E819F81892B19F4DF91CF91089534
:10127000CB016C857D85488559850E94C9222C85C6
:101280003D8588859985820F931F9D878C872A814C
:101290003B812817390720F4888199819D878C87A5
:1012A0008E819F8101979F838E83DF91CF910895D7
:1012B000FC018681978108950E9442142091E806DE
:1012C0003091E90643E050E061E070E082E392E0B3
:1012D0000E94D12380E090E008958F929F92AF9278
:1012E000BF92CF92DF92EF92FF920F931F93CF9313
:1012F000DF93CDB7DEB7EC970FB6F894DEBF0FBE25
:10130000CDBF5C014091E6065091E70661E570E0D3
:101310008EE393E00E943F236BE372E08EE393E061
:101320000E94C4229A838983892B09F4B4C08E0158
:101330000D5F1F4F21E030E069016BE372E080E058
:1013400090E00E94C422D8018D939D938D01960157
:101350002F5F3F4F892B81F7F501E280EE2009F4E2
:101360006FC0F12C88248394912C03C0F394FE1455
:1013700018F5D5010D911C91B4E0FB9E000D111DD7
:101380001124F8016081718144E150E089819A81E2
:101390000E94D222892B51F7D8011296ED91FC912F
:1013A0001397BE016F5F7F4FC60109954C01F50190
:1013B000E280F394FE14E8F2F1E08F16910409F450
:1013C0003FC082E08816910401F12091E806309137
:1013D000E90643E050E061E070E082E392E00E94C1
:1013E000D123C401EC960FB6F894DEBF0FBECDBF7B
:1013F000DF91CF911F910F91FF90EF90DF90CF90F1
:10140000BF90AF909F908F9008952091E806309103
:10141000E90647E750E061E070E083E691E00E9472
:10142000D1232091E8063091E90643E050E061E0E5
:1014300070E082E392E00E94D12382E090E0D2CF7C
:101440006091E8067091E90682E290E00E946B23C9
:101450006091E8067091E90689819A810E94A7232C
:101460002091E8063091E90646E550E061E070E041
:101470008BED91E00E94D1232091E8063091E9069E
:1014800043E050E061E070E082E392E00E94D1230B
:1014900081E090E0A7CF2091E8063091E90643E093
:1014A00050E061E070E082E392E00E94D12380E0AE
:1014B00090E098CF4FE061E070E080E20E94701011
:1014C00040E061E070E080E20C9412100F931F93F3
:1014D000CF93DF931F92CDB7DEB78430910508F527
:1014E0008C016115710519F161307105D1F4AE01FE
:1014F0004F5F5F4F61E070E080E20E949510023024
:101500001105B9F103301105C1F10130110599F14F
:1015100041E08981482B498361E070E080E20E94CC
:1015200070100F90DF91CF911F910F910895AE0130
:101530004F5F5F4F61E070E080E20E9495100230E3
:101540001105A9F003301105E1F001301105B9F0E2
:101550004EEF89814823498361E070E080E20E9478
:1015600070100F90DF91CF911F910F9108954BEF65
:10157000F0CF44E0CECF42E0CCCF48E0CACF4DEF31
:10158000E8CF47EFE6CF4FE360E070E080E20C94F5
:101590001210AC0160E070E080E20C942C11CF934B
:1015A000DF931F92CDB7DEB70E94EA120E9412129B
:1015B0000E949311249A2C98579A5F98529A5A989D
:1015C0000E94C30ACE0101960E94C90A898185FF43
:1015D0003FC010920A011092090120E030E080FF24
:1015E0002EC0109215011092140140E050E083FFCC
:1015F0001DC01092200110921F0180E090E0223067
:10160000310521F44230510509F440C060E070E03A
:1016100083E090E00E94660A84E090E090932201CB
:10162000809321010F90DF91CF91089582FF27C011
:1016300081E090E09093200180931F01E0CF81FF33
:1016400017C041E050E05093150140931401CFCFF3
:1016500084FF07C021E030E030930A0120930901A4
:10166000BECF22E030E030930A0120930901B7CFCA
:1016700042E050E05093150140931401B8CF82E04E
:1016800090E09093200180931F01B9CF029709F059
:10169000BDCF61E070E083E090E00E94660ABCCFBD
:1016A000FF920F931F93CF93DF938C01EB01F42EE6
:1016B00061E070E082E090E00E94660A84E68F19A3
:1016C000C130D10509F4FEC008F4F7C0C230D1051D
:1016D00009F458C0C330D10509F0ABC060E070E038
:1016E00080E090E00130110509F454C0013011058B
:1016F00008F494C00230110509F0A1C020911F0127
:10170000309120012115310509F423C12130310523
:1017100021F4C130D10509F48CC00E94FC12C33001
:10172000D10509F42EC15A9A2C985F98CE010297E0
:10173000029708F429C182E090E00E94B411F0926F
:10174000180182E090E09093220180932101D093D0
:101750001A01C093190123E030E030930401209373
:1017600003011092020110920601109205013093BC
:101770000F0120930E0110920D0110921101109291
:101780001001DDC064E670E084E690E001301105F0
:1017900009F0ACCF209114013091150121153105CC
:1017A00009F4D3C02130310521F4C130D10509F449
:1017B00040C00E94FC12C330D10509F4F6C05F9A04
:1017C0002C985A98CE010297029708F4F1C081E054
:1017D00090E00E94B411F0920D0181E090E09093AE
:1017E000220180932101D0930F01C0930E0123E0C9
:1017F00030E0309304012093030110920201109213
:1018000006011092050130931A01209319011092DC
:10181000180110921C0110921B0191C02091090126
:1018200030910A012115310509F050C0209709F0C7
:1018300054C0DF91CF911F910F91FF90089560E008
:1018400070E080E090E00E94FC1283E090E00E9453
:10185000B4112C985F985A9883E090E0909304011B
:10186000809303011092020110920601109205016B
:1018700090930F0180930E0110920D0110921101AF
:101880001092100190931A0180931901109218017F
:1018900010921C0110921B0184E090E090932201B1
:1018A0008093210161E070E081E090E0DF91CF91D1
:1018B0001F910F91FF900C94660A682F70E084E6E8
:1018C00090E010CF90E064E670E00CCF213031055D
:1018D00021F4C130D10509F4ACCF0E94FC12C33011
:1018E000D105D9F12C9A5F985A98CE0102970297A8
:1018F000B8F180E090E00E94B411F09202011092E1
:1019000022011092210180E090E0D0930401C09365
:10191000030123E030E030930F0120930E01109279
:101920000D01109211011092100130931A012093B1
:1019300019011092180110921C0110921B010497BA
:1019400009F4B0CF60E070E0AFCF209709F031CF5D
:1019500070CF209709F0E1CE6CCF2C985F985A9801
:1019600083E090E00E94B4111092060110920501EC
:101970001092020184E090E0909322018093210173
:10198000C4CF5A982C985F9883E090E00E94B411DD
:1019900010921C0110921B011092180184E090E03B
:1019A0009093220180932101D2CE5F982C985A986F
:1019B00083E090E00E94B411109211011092100186
:1019C00010920D0184E090E0909322018093210118
:1019D0000ACFCF93DF931F92CDB7DEB7CE0101962A
:1019E0000E94C90A898185FF59C010920A0110928C
:1019F000090120E030E080FF48C0109215011092EC
:101A0000140140E050E083FF37C010922001109293
:101A10001F0180E090E02230310521F44230510571
:101A200009F45AC060E070E083E090E00E94660A2A
:101A300080912101909122018130910509F46EC0BD
:101A400008F454C00297A1F480911F0190912001E5
:101A5000009709F08BC08091190190911A01892B90
:101A600039F440E062E070E082E090E00E94500BC8
:101A70000F90DF91CF91089582FF27C081E090E021
:101A80009093200180931F01C6CF81FF17C041E0D2
:101A900050E05093150140931401B5CF84FF07C067
:101AA00021E030E030930A0120930901A4CF22E025
:101AB00030E030930A01209309019DCF42E050E0CD
:101AC00050931501409314019ECF82E090E09093D3
:101AD000200180931F019FCF029709F0A3CF61E0FF
:101AE00070E083E090E00E94660AA2CF8091090135
:101AF00090910A01009791F1019709F0B9CF809177
:101B0000030190910401019709F0B2CF40E062E037
:101B100070E080E090E00E94500BAACF8091140109
:101B200090911501009791F0019709F0A1CF809154
:101B30000E0190910F01019709F09ACF40E062E009
:101B400070E081E090E00E94500B92CF80910E01F6
:101B500090910F01892B09F08BCFF0CF8091030179
:101B600090910401892B09F083CFD0CF019709F020
:101B70007FCF8091190190911A01019709F078CFD8
:101B800070CF0E94E7112091210130912201213074
:101B90003105F1F088F02230310569F420911D0102
:101BA00030911E012817390708F442C090931C0198
:101BB00080931B0108950895209107013091080139
:101BC0002817390788F0909306018093050108953E
:101BD000209112013091130128173907B8F0909322
:101BE000110180931001089540E062E070E080E010
:101BF00090E00E94500B60E070E082E090E00E9474
:101C0000660A1092060110920501089540E062E014
:101C100070E081E090E00E94500B60E070E082E0B4
:101C200090E00E94660A109211011092100108952E
:101C300040E062E070E082E090E00E94500B60E0E3
:101C400070E082E090E00E94660A10921C011092FF
:101C50001B01089581309105F9F0D8F0823091058B
:101C600091F0039799F420912101309122012330C2
:101C7000310560F44BE0429FC001439F900D112459
:101C800080509F4F089586E191E0089580E090E0B4
:101C9000089580E091E008958BE091E008950C9420
:101CA000A4124F925F926F927F929F92AF92BF92D7
:101CB000CF92DF92EF92FF920F931F93CF93DF9318
:101CC00000D000D0CDB7DEB701E010E083E0A82E51
:101CD000B12C94E0C92ED12C9924939422E0E22EC9
:101CE000F12CCE0101960E94B912811138C0809169
:101CF0009503909196038230910509F497C008F0FE
:101D000042C0009709F4B3C08130910551F7498171
:101D10005A816B817C812A013B012EE8421A28E01E
:101D2000520A6108710825E64216510461047104E3
:101D300008F0FAC0809194038F5F809394038830F9
:101D400080F2F0929603E092950310929403109221
:101D50009203CE0101960E94B912882341F20F909E
:101D60000F900F900F90DF91CF911F910F91FF90E7
:101D7000EF90DF90CF90BF90AF909F907F906F904B
:101D80005F904F9008958330910579F1049709F0A1
:101D9000A8CF89819A81AB81BC81AC01BD014E582D
:101DA000584061097109453651056105710508F012
:101DB00075C0809194038F5F80939403883008F4FA
:101DC00090CF80919203809580939203909190039D
:101DD00090959093900320919303821709F4EFC09C
:101DE00010929603109295037CCF89819A81AB81E2
:101DF000BC81AC01BD014E5858406109710945369E
:101E000051056105710508F073C0809194038F5FDF
:101E100080939403883008F464CFD0929603C092E4
:101E2000950310929403109290035BCF89819A815D
:101E3000AB81BC81AC01BD014E58584061097109AC
:101E4000453651056105710508F08DC080919403F8
:101E50008F5F80939403883008F443CFB092960349
:101E6000A092950310929403109291033ACF898126
:101E70009A81AB81BC8184589746A109B109893EFA
:101E80009340A105B10508F02CCF10939603009361
:101E90009503109294031092930323CFAC01BD01DC
:101EA0004E5451416109710945365105610571056D
:101EB00088F4809194039801082E01C0220F0A949F
:101EC000EAF790919003292B209390038F5F8093E2
:101ED000940374CF84589746A109B109893E934071
:101EE000A105B10590F21092960310929503F9CED8
:101EF000AC01BD014E54514161097109453651058E
:101F00006105710538F7809194039801082E01C08E
:101F1000220F0A94EAF790919103292B20939103C1
:101F20008F5F8093940376CF2A013B012EE4421AFF
:101F300021E1520A6108710825E642165104610444
:101F4000710470F520919403022E01C0880F0A9449
:101F5000EAF790919303892B8093930381E0820F9A
:101F600080939403ECCEAC01BD014E545141610904
:101F70007109453651056105710508F0ABCF8091B7
:101F800094039801082E01C0220F0A94EAF7909159
:101F90009203292B209392038F5F809394035BCF4E
:101FA0004458574661097109493E5340610571051E
:101FB00008F46BCF109296031092950392CE209165
:101FC000910392130DCF90928F0380939703909378
:101FD000980306CF87E993E008951F920F920FB6FA
:101FE0000F9211248F931D9903C081E08093990370
:101FF0008F910F900FBE0F901F90189560E080E0BA
:1020000090E00E942913F8942D982598E8E6F0E0D6
:10201000808181608083EBE6F0E080818062808354
:1020200078940895CF93DF9300D0CDB7DEB796E0D4
:10203000960F99834A83623038F081E090E00F90E8
:102040000F90DF91CF91089520E042E0BE016F5FD5
:102050007F4F0E945913892B39F082E090E00F9056
:102060000F90DF91CF91089580E090E0E8CFEF925C
:10207000FF921F93CF93DF931F92CDB7DEB796E009
:10208000960F9983623048F081E090E00F90DF91E5
:10209000CF911F91FF90EF9008957A01182F21E0C2
:1020A00041E0BE016F5F7F4F0E945913892B49F0B9
:1020B00082E090E00F90DF91CF911F91FF90EF9021
:1020C000089541E0BE016F5F7F4F812F0E94AD13E5
:1020D000892B71F78981F701808380E090E0D6CF6A
:1020E000CF93DF9300D0CDB7DEB792E0960F998300
:1020F0004A83623038F081E090E00F900F90DF91DA
:10210000CF91089520E042E0BE016F5F7F4F0E94B3
:102110005913892B39F082E090E00F900F90DF91F6
:10212000CF91089580E090E0E8CFEF92FF921F9367
:10213000CF93DF931F92CDB7DEB792E0960F9983CE
:10214000623048F081E090E00F90DF91CF911F91D5
:10215000FF90EF9008957A01182F21E041E0BE0131
:102160006F5F7F4F0E945913892B49F082E090E006
:102170000F90DF91CF911F91FF90EF90089541E074
:10218000BE016F5F7F4F812F0E94AD13892B71F7C6
:102190008981F701808380E090E0D6CFCF93DF93F1
:1021A00000D0CDB7DEB794E0960F99834A836230B2
:1021B00038F081E090E00F900F90DF91CF9108957B
:1021C00020E042E0BE016F5F7F4F0E945913892BD0
:1021D00039F082E090E00F900F90DF91CF91089559
:1021E00080E090E0E8CFEF92FF921F93CF93DF93D0
:1021F0001F92CDB7DEB794E0960F9983623048F016
:1022000081E090E00F90DF91CF911F91FF90EF90D0
:1022100008957A01182F21E041E0BE016F5F7F4FE2
:102220000E945913892B49F082E090E00F90DF91D2
:10223000CF911F91FF90EF90089541E0BE016F5F35
:102240007F4F812F0E94AD13892B71F78981F70190
:10225000808380E090E0D6CFEF92FF921F93CF93E0
:10226000DF931F92CDB7DEB76983623048F081E01B
:1022700090E00F90DF91CF911F91FF90EF90089524
:102280007A01182F21E041E0BE016F5F7F4F0E946D
:102290005913892B49F082E090E00F90DF91CF91A4
:1022A0001F91FF90EF90089541E0BE016F5F7F4F57
:1022B000812F0E94AD13892B71F78981F7018083EB
:1022C00080E090E0D6CF1F920F920FB60F921124AC
:1022D0008F939F93EF93FF93E0919B03F0E08091A6
:1022E000780090917900EE0FFF1FE456FC4F918328
:1022F000808380919B038F5F80939B0380919B03DE
:10230000803440F080917A008F7D80937A0081E064
:1023100080939A03FF91EF919F918F910F900FBE41
:102320000F901F901895CF93DF93F894ECE7F0E0AF
:10233000808180648083AAE7B0E08C9185608C9373
:10234000CBE7D0E08881887F88838C9188688C93E4
:10235000AEE7B0E08C9187608C93789480818F6039
:102360008083DF91CF91089581309105D1F098F06D
:10237000029759F480917C00827F80937C00809149
:102380007C00826080937C00089580917C008F6047
:1023900080937C00089580917C00807F80937C00F6
:1023A000089580917C00817F80937C0080917C00E7
:1023B000816080937C00089510929B03EAE7F0E02F
:1023C000808180628083808180648083089520E0A2
:1023D00030E080E090E0F901EE0FFF1FE456FC4F83
:1023E00040815181840F951F2F5F3F4F203431056D
:1023F00091F70024880F991F001C880F991F001C5B
:10240000892F902D08951F920F920FB60F921124CD
:102410008F9381E08093E2068F910F900FBE0F9013
:102420001F9018951092E206F89489EF87BD85B544
:10243000856085BD84B5826084BDEEE6F0E0808174
:1024400082608083789408951F920F920FB60F9246
:1024500011240F931F932F933F934F935F936F9389
:102460007F938F939F93AF93BF93EF93FF9380914D
:1024700086009091870020917A06AC0160E070E0C0
:1024800000917B0610917C0620917D0630917E069E
:1024900000917B0610917C0620917D0630917E068E
:1024A000801B910B40937B0650937C0660937D06C6
:1024B00070937E06209121042639F8F4E0912004DF
:1024C000F0E0A0E0B0E0EE0FFF1FEE0FFF1FEE5DAB
:1024D000FB4F80839183A283B383809121048F5F1C
:1024E00080932104809120048F5F80932004809149
:1024F0002004863910F01092200481E080931E049D
:10250000FF91EF91BF91AF919F918F917F916F91CB
:102510005F914F913F912F911F910F910F900FBE9F
:102520000F901F9018951F920F920FB60F921124C3
:102530008F9380917A068F5F80937A068F910F90A8
:102540000FBE0F901F901895F89420982898E1E8F6
:10255000F0E080818260808380818F7B80838081B6
:1025600080688083EFE6F0E08081816280837894E8
:102570000895DC012FB7F89480911F0490912104F5
:10258000992319F1E82FF0E0EE0FFF1FEE0FFF1F68
:10259000EE5DFB4F40815181628173814D935D936C
:1025A0006D937C9313979091210491509093210403
:1025B0008F5F863928F480931F0480E02FBF089531
:1025C00010921F0480E02FBF089580931F048FEFA7
:1025D0002FBF08952B985B98239A539AE0EBF0E075
:1025E000808183608083A1EBB0E08C9182608C93CA
:1025F0008081806A80830895FB014FEF85369105C5
:1026000080F4489F9001499F300D112436952795FD
:1026100036952795ABE7B4E10E94E11F9695879523
:10262000482F8FEFE536F10578F48E9F90018F9F4C
:10263000300D11243695279536952795ABE7B4E1F3
:102640000E94E11F969587954093B3008093B40054
:1026500008959C011092BC0097B1906397B988B11E
:102660006623A1F0806388B997B19F7C97B91092D7
:10267000B90021303105A1F021303105B0F0223010
:10268000310591F48CE08093B80008958F7C88B96F
:1026900097B19F7C97B91092B9002130310561F74D
:1026A00088E18093B8000895089588E48093B80085
:1026B000089594EA9093BC009091BC0097FFFCCFE2
:1026C0009091B900987F983041F09091B900987F2F
:1026D000903119F081E090E0089590E0880F991F03
:1026E0008093BB0084E88093BC008091BC0087FF8E
:1026F000FCCF8091B900887F883141F08091B9008A
:10270000887F803419F082E090E008954423D1F06E
:10271000FB01CB01840F911DAC0194E88191809362
:10272000BB009093BC008091BC0087FFFCCF8091E0
:10273000B900887F883219F083E090E00895E417AB
:10274000F50761F7211106C084E98093BC0080E0A1
:1027500090E0089580E090E0089594EA9093BC00A2
:102760009091BC0097FFFCCF9091B900987F983072
:1027700041F09091B900987F903119F081E090E09C
:102780000895880F81608093BB0084E88093BC002B
:102790008091BC0087FFFCCF8091B900887F883191
:1027A00041F08091B900887F803419F082E090E098
:1027B000089550E042305105BCF0FB019A012150D0
:1027C0003109260F371F94EC9093BC008091BC0018
:1027D00087FFFCCF8091B900887F8035F1F084E0DD
:1027E00081932E173F0781F741505109FB01E40FF8
:1027F000F51F84E88093BC008091BC0087FFFCCF6C
:102800008091B900887F883559F085E0808384E91C
:102810008093BC0080E090E008958091BB00E0CF01
:102820008091BB00808384E98093BC0080E090E0CD
:1028300008951F920F920FB60F9211248F938091DB
:10284000C0008C7191F08091C00087FF08C080911A
:10285000C6008093DF068091C00087FDF8CF8F917E
:102860000F900FBE0F901F9018958091C600809317
:10287000DF0681E0809380068F910F900FBE0F904E
:102880001F9018951092800610927F06F89410926F
:10289000C50087E68093C4001092C00088E9809349
:1028A000C10086E38093C200789421E836E041E0DD
:1028B00050E060E570E081ED96E00C94C3088A304A
:1028C00049F09091C00095FFFCCF8093C60080E056
:1028D00090E008959091C00095FFFCCF9DE090930B
:1028E000C600EFCFCF93DF931F92CDB7DEB78FB780
:1028F000F8949091DF0699838FBF89818D3069F0BC
:102900008A3069F090EE980F9F3540F1883009F4D5
:1029100041C00F90DF91CF9108958AE08983BE0175
:102920006F5F7F4F81ED96E00E94DE0899819A30BB
:1029300069F08091C00085FFFCCF9093C60081E0D4
:1029400080937F060F90DF91CF9108958091C00012
:1029500085FFFCCF8DE08093C600EBCFBE016F5F9B
:102960007F4F81ED96E00E94DE0899819A3051F008
:102970008091C00085FFFCCF9093C6000F90DF913F
:10298000CF9108958091C00085FFFCCF8DE08093AA
:10299000C600EECF81ED96E00E945809892B09F41C
:1029A000B8CF8091C00085FFFCCF88E08093C6003F
:1029B0008091C00085FFFCCF80E28093C6008091AB
:1029C000C00085FFFCCF88E08093C600BE016F5F2A
:1029D0007F4F81ED96E00E9408099BCFCF93DF9354
:1029E0001F92CDB7DEB781ED96E00E945809892B82
:1029F00031F48EEF9FEF0F90DF91CF910895BE01DC
:102A00006F5F7F4F81ED96E00E942E098981082E2D
:102A1000000C990B0F90DF91CF91089560E070E06A
:102A200080E090E00E94660A0E94EA0F009709F495
:102A30009AC0FC0180819181982789279827853445
:102A4000910509F486C070F18734910509F475C0C9
:102A500008F467C08235910509F069C080913101A1
:102A6000909132018430910509F461C00E942A0ED0
:102A7000FC01892B09F45BC0228130E06381748101
:102A80006130710509F480C02F503109611571055D
:102A900011F437FD18C0121613060CF07BC060E06D
:102AA00070E037C088319105E9F04C9709F03FC0DC
:102AB000809131019091320184309105C1F10E94E1
:102AC0002A0E892BA1F140E062E070E08091310193
:102AD000909132010E94500B61E070E080E090E044
:102AE0000C94660A809131019091320184309105F5
:102AF000F1F00E942A0EFC01892BC9F0228130E0FE
:102B0000638174816130710579F1215F3F4F60E02D
:102B100070E04081842F90E082179307BCF2422F2F
:102B2000D5CF81E090E0909332018093310161E054
:102B300070E080E090E00C94660A82E090E0909370
:102B400032018093310161E070E080E090E00C940C
:102B5000660A109232011092310161E070E080E06B
:102B600090E00C94660A08958FE090E0AC01421B5F
:102B7000530B9A01141615060CF4A5CF452B99F0AA
:102B8000319521953109C5CF81EF9FEFAC01421BF3
:102B9000530B9A012115310531F0319521953109F9
:102BA00061E070E0B6CF40E091CFEF92FF920F93DB
:102BB0001F93CF93DF93CDB7DEB72A970FB6F89464
:102BC000DEBF0FBECDBF029779F082E090E02A967B
:102BD0000FB6F894DEBF0FBECDBFDF91CF911F912E
:102BE0000F91FF90EF900895FB010281138144E162
:102BF00050E066E372E0C8010E94D222892B09F4FA
:102C00004AC0CE0101967C018AE0F70111928A95B3
:102C1000E9F744E150E06FE372E0C8010E94D2227C
:102C2000892B09F44CC044E150E061E472E0C80132
:102C30000E94D222892B09F445C044E150E063E4AC
:102C400072E0C8010E94D222892B09F0BECF82E037
:102C500090E00E942A0E009709F4B7CFFC01808112
:102C60004AE0B70190E00E9412236091E80670915B
:102C7000E906C7010E94A7232091E8063091E906E2
:102C800042E050E061E070E08CE392E00E94D123EA
:102C900080E090E09CCF06E51BE0F8018491609114
:102CA000E8067091E906082E000C990B0E946B2330
:102CB0000F5F1F4FFCE00D381F0779F7E9CF80E069
:102CC00090E0C7CF81E090E0C4CF0F931F93CF93E4
:102CD000DF93FB018230910549F0019759F182E0C1
:102CE00090E0DF91CF911F910F91089544E150E062
:102CF00066E372E0828193810E94D222892B79F768
:102D0000CDECD0E106E411E1FE0184916091E8068A
:102D10007091E906082E000C990B0E946B232196F6
:102D20000C171D0789F780E090E0DF91CF911F918C
:102D30000F910895C6E7DEE00CEC10E1FE018491EE
:102D40006091E8067091E906082E000C990B0E942C
:102D50006B2321960C171D0789F7E5CF0F931F935F
:102D6000CF93DF93FB018230910549F0019751F138
:102D700082E090E0DF91CF911F910F91089544E19F
:102D800050E066E372E0828193810E94D222892B17
:102D900079F7CCE1DEE0FE0184916091E806709164
:102DA000E906082E000C990B0E946B232196FEE089
:102DB000C537DF0781F780E090E0DF91CF911F9169
:102DC0000F910895C1EEDDE00BE11EE0FE0184915C
:102DD0006091E8067091E906082E000C990B0E949C
:102DE0006B2321960C171D0789F7C091E806D09137
:102DF000E9060E94E21BBE010E94A7232091E8067B
:102E00003091E90644E050E061E070E085E492E052
:102E10000E94D123D0CF0F931F93CF93DF93EB0169
:102E20008230910549F0039739F182E090E0DF911B
:102E3000CF911F910F91089544E150E066E372E055
:102E40008A819B810E94D222892B79F7CEE8DCE02F
:102E500000EE1DE0FE0184916091E8067091E906A4
:102E6000082E000C990B0E946B2321960C171D074E
:102E700089F780E090E0DBCF0A811B8144E150E0DC
:102E80006FE372E0C8010E94D222892BB1F044E1C5
:102E900050E061E472E0C8010E94D222892B09F15E
:102EA00044E150E063E472E0C8010E94D222892B21
:102EB00009F0BBCF02E010E002C000E010E08C811E
:102EC0009D810E94C321EC018536910508F0ADCFAC
:102ED000C8010E942A0E009709F4A7CFFC01C08305
:102EE000C8CF01E010E0EBCF0F931F93CF93DF9398
:102EF000EB018230910549F0039739F182E090E0CF
:102F0000DF91CF911F910F91089544E150E066E366
:102F100072E08A819B810E94D222892B79F7C3E0DB
:102F2000DAE005E51BE0FE0184916091E80670910E
:102F3000E906082E000C990B0E946B2321960C17B2
:102F40001D0789F780E090E0DBCF0A811B8144E117
:102F500050E06FE372E0C8010E94D222892BB1F0E9
:102F600044E150E061E472E0C8010E94D222892B62
:102F700009F144E150E063E472E0C8010E94D2220A
:102F8000892B09F0BBCF02E010E002C000E010E0A6
:102F90008C819D810E94C321EC018536910508F04A
:102FA000ADCFC8010E942A0E009709F4A7CFFC01FB
:102FB000C183C8CF01E010E0EBCF0F931F93CF93F5
:102FC000DF93EB018230910549F0039751F182E0E4
:102FD00090E0DF91CF911F910F91089544E150E06F
:102FE00066E372E08A819B810E94D222892B79F765
:102FF000C2E8D7E0FE0184916091E8067091E9068D
:10300000082E000C990B0E946B232196F8E0CA3C15
:10301000DF0781F780E090E0DF91CF911F910F9162
:1030200008950A811B8144E150E06FE372E0C8011A
:103030000E94D222892BB1F044E150E061E472E0B9
:10304000C8010E94D222892B71F144E150E063E46F
:1030500072E0C8010E94D222892B09F0B8CF02E0A9
:1030600010E002C000E010E08C819D810E94C3212D
:103070000097E1F09C01215031092436310578F0A8
:103080009C012C593F4F2436310508F0A0CF482F22
:10309000419561E070E0C8010E94500BBBCF482F02
:1030A00060E070E0F8CF01E010E0DECF40E062E0E9
:1030B00070E0F1CFCF93DF93029729F082E090E0A8
:1030C000DF91CF910895FB01C281D38144E150E0AB
:1030D00066E372E0CE010E94D222892BF9F044E12E
:1030E00050E06FE372E0CE010E94D222892B09F4F6
:1030F00049C044E150E061E472E0CE010E94D22276
:10310000892B09F144E150E063E472E0CE010E94B2
:10311000D222892B99F682E090E017C0C4E1D5E075
:10312000FE0184916091E8067091E906082E000C7A
:10313000990B0E946B232196F6E0C136DF0781F7D9
:1031400080E090E0BDCF81E090E00E942A0E0097E1
:1031500009F4B4CFFC01818592858130910521F17C
:10316000A0F0029769F72091E8063091E90646E061
:1031700050E061E070E08AE692E00E94D12380E0B6
:1031800090E09ECF80E090E0E0CF2091E806309183
:10319000E9064FE050E061E070E08AE492E00E94CE
:1031A000D12380E090E08CCF2091E8063091E906B1
:1031B0004FE050E061E070E08AE592E00E94D123A8
:1031C00080E090E07DCFCF93DF93029729F082E0FB
:1031D00090E0DF91CF910895FB01C281D38144E15A
:1031E00050E066E372E0CE010E94D222892BF9F012
:1031F00044E150E06FE372E0CE010E94D222892BBD
:1032000009F457C044E150E061E472E0CE010E944D
:10321000D222892B19F144E150E063E472E0CE013F
:103220000E94D222892B99F682E090E019C0CAE66A
:10323000D1E0FE0184916091E8067091E906082EC4
:10324000000C990B0E946B232196F2E0C338DF0734
:1032500081F780E090E0DF91CF91089581E090E0E8
:103260000E942A0E009709F4B2CFFC016581768195
:1032700080E090E00E94C82020E030E040E85AE37F
:103280000E94562120E030E04AE754E40E94562193
:103290009F938F937F936F9381E792E09F938F9398
:1032A0000E9405240F900F900F900F900F900F9099
:1032B000D0CF80E090E0D4CF0F931F93CF93DF93D4
:1032C000EB018230910549F0039739F182E090E0FB
:1032D000DF91CF911F910F91089544E150E066E393
:1032E00072E08A819B810E94D222892B79F7CBEBF5
:1032F000D3E003E115E0FE0184916091E80670914E
:10330000E906082E000C990B0E946B2321960C17DE
:103310001D0789F780E090E0DBCF0A811B8144E143
:1033200050E06FE372E0C8010E94D222892BB1F015
:1033300044E150E061E472E0C8010E94D222892B8E
:10334000B9F144E150E063E472E0C8010E94D22286
:10335000892B09F0BBCF02E010E002C000E010E0D2
:103360008C819D810E94C321EC01893E934008F02D
:10337000ADCFC8010E942A0E8C01892B09F4A6CF7B
:10338000BE01DD0F880B990B0E94CA2020E030E0BF
:103390004AE754E40E94272020E030E040E854E46B
:1033A0000E9456210E949920F80170876783B2CF4E
:1033B00001E010E0D5CFEF92FF920F931F93CF93D0
:1033C000DF93CDB7DEB72A970FB6F894DEBF0FBEF6
:1033D000CDBF029779F082E090E02A960FB6F8947C
:1033E000DEBF0FBECDBFDF91CF911F910F91FF9038
:1033F000EF900895FB010281138144E150E066E300
:1034000072E0C8010E94D222892B09F44AC0CE0181
:1034100001967C018AE0F70111928A95E9F744E16F
:1034200050E06FE372E0C8010E94D222892B09F4B8
:103430004CC044E150E061E472E0C8010E94D22235
:10344000892B09F445C044E150E063E472E0C8010F
:103450000E94D222892B09F0BECF82E090E00E9428
:103460002A0E009709F4B7CFFC0181814AE0B70129
:1034700090E00E9412236091E8067091E906C7016E
:103480000E94A7232091E8063091E90642E050E02F
:1034900061E070E08CE392E00E94D12380E090E054
:1034A0009CCF0BEC18E0F80184916091E8067091D4
:1034B000E906082E000C990B0E946B230F5F1F4F2B
:1034C000FAE002301F0779F7E9CF80E090E0C7CF3C
:1034D00081E090E0C4CFEF92FF920F931F93CF93C0
:1034E000DF93CDB7DEB72A970FB6F894DEBF0FBED5
:1034F000CDBF029779F082E090E02A960FB6F8945B
:10350000DEBF0FBECDBFDF91CF911F910F91FF9016
:10351000EF900895FB010281138144E150E066E3DE
:1035200072E0C8010E94D222892B09F45AC0CE0150
:1035300001967C018AE0F70111928A95E9F744E14E
:1035400050E06FE372E0C8010E94D222892B09F497
:103550005EC044E150E061E472E0C8010E94D22202
:10356000892B09F457C044E150E063E472E0C801DC
:103570000E94D222892B09F0BECF82E090E00E9407
:103580002A0E8C01009709F4B6CFFC0182814AE033
:10359000B70190E00E9412236091E8067091E9065D
:1035A000C7010E94A723F80183819481813091058E
:1035B00009F442C008F45CC08230910509F44BC0A4
:1035C000039759F52091E8063091E9064AE050E06A
:1035D00061E070E08EEA92E00E94D12380E090E00A
:1035E0008CCF02E616E0F80184916091E8067091B4
:1035F000E906082E000C990B0E946B230F5F1F4FEA
:10360000F7E001381F0779F780E090E076CF80E09F
:1036100090E0B5CF81E090E0B2CF2091E806309104
:10362000E90642E050E061E070E08CE392E00E9445
:10363000D12380E090E061CF2091E8063091E90647
:1036400042E150E061E070E080E992E00E94D12325
:1036500080E090E052CF2091E8063091E9064AE000
:1036600050E061E070E083EA92E00E94D123CCCF89
:103670002091E8063091E90642E150E061E070E017
:103680008DE792E00E94D12380E090E036CF0F9347
:103690001F93CF93DF93CDB7DEB72A970FB6F89479
:1036A000DEBF0FBECDBF029769F082E090E02A96A0
:1036B0000FB6F894DEBF0FBECDBFDF91CF911F9143
:1036C0000F910895FB010281138144E150E066E30C
:1036D00072E0C8010E94D222892B09F451C0FE0178
:1036E00031968AE0DF011D928A95E9F744E150E0C6
:1036F0006FE372E0C8010E94D222892B09F454C002
:1037000044E150E061E472E0C8010E94D222892BBA
:1037100009F44DC044E150E063E472E0C8010E9446
:10372000D222892B11F682E090E00E942A0E0097A7
:1037300009F4BBCFFC016781708580E090E00E94B6
:10374000C82020E030E040E85AE30E94562120E003
:1037500030E04AE754E40E9456219F938F937F9371
:103760006F9381E792E09F938F930E9405240F90BF
:103770000F900F900F900F900F9080E090E097CFF8
:1037800004E812E0F80184916091E8067091E9067E
:10379000082E000C990B0E946B230F5F1F4FF3E064
:1037A0000A3B1F0779F7E9CF80E090E0BECF81E0C8
:1037B00090E0BBCF23E331E0FC01318320832CE098
:1037C000228308958AE393E00895A0E1B0E0EBEE50
:1037D000FBE10C94F01F7C011B016A01FC011782C4
:1037E0001682838181FF44C39E012F5F3F4F3901C1
:1037F000F7019381F10193FD859193FF81911F0161
:10380000882309F431C3853239F493FD859193FF00
:1038100081911F01853239F4B70190E00E946B233A
:1038200056016501E5CF10E0512C912CFFE1F9150F
:10383000D8F08B3279F038F4803279F08332A1F409
:10384000F92DF0612EC08D3261F0803369F4292D9D
:1038500021602DC0392D3260932E892D8460982EE1
:103860002AC0E92DE86015C097FC2DC020ED280F77
:103870002A3088F496FE06C03AE0139F200D1124EA
:10388000122F19C08AE0589E200D1124522EE92DC6
:10389000E0629E2E10C08E3231F496FCE5C2F92D06
:1038A000F0649F2E08C08C3621F4292D2068922EBA
:1038B00002C0883641F4F10193FD859193FF819117
:1038C0001F018111B3CF9BEB980F933020F4992DFA
:1038D0009061805E07C09BE9980F933008F066C145
:1038E000992D9F7E96FF16E09F73992E853619F4C9
:1038F0009064992E08C0863621F4392F3068932EB3
:1039000002C01111115097FE07C01C3350F444241B
:103910004394410E27E00BC0183038F027E017E041
:1039200005C027E09CE3492E02C0212F412C5601FF
:1039300084E0A80EB11CF6016081718182819381BF
:10394000042DA3010E94E1216C01F981FC87F0FFA5
:1039500002C0F3FF06C091FC06C092FE06C000E262
:1039600005C00DE203C00BE201C000E08C858C7045
:1039700019F001115AC29BC297FE10C04C0CFC8575
:10398000F4FF04C08A81813309F44A94141474F555
:1039900028E0241578F588E0482E2CC096FC2AC033
:1039A000812F90E08C159D059CF03CEFC3163FEFF6
:1039B000D30674F0892D8068982E0AC0E2E0F0E00A
:1039C000EC0FFD1FE10FF11D8081803319F41150C0
:1039D0001111F4CF97FE0EC044244394410E812F61
:1039E00090E0C816D9062CF41C1904C04424439452
:1039F00001C010E097FE06C01C141D0434F4C6017B
:103A0000019605C085E090E002C081E090E00111E0
:103A10000196112331F0212F30E02F5F3F4F820FAD
:103A2000931F252D30E08217930714F4581A01C014
:103A3000512C892D897049F4552039F0B70180E265
:103A400090E00E946B235A94F7CF002329F0B7012E
:103A5000802F90E00E946B2393FC09C0552039F021
:103A6000B70180E390E00E946B235A94F7CF97FE52
:103A70004CC04601D7FE02C0812C912CC60188198A
:103A80009909F301E80FF91FFE87ED8796012419C4
:103A90003109388B2F87012F10E0119501951109FD
:103AA0003FEF8316930629F4B7018EE290E00E945F
:103AB0006B23C814D9044CF08F8598898815990513
:103AC00024F4ED85FE85818101C080E3F1E08F1A49
:103AD00091082D853E852F5F3F4F3E872D878016AD
:103AE00091062CF0B70190E00E946B23D9CFC81447
:103AF000D90441F49A81963320F4953319F43C8526
:103B000034FF81E3B70190E04EC08A81813319F020
:103B10009C859F7E9C87B70190E00E946B231111CA
:103B200005C094FC18C085E690E017C0B7018EE28E
:103B300090E00E946B231E5F82E001E0080FF3011A
:103B4000E80FF11D8081B70190E00E946B23802F68
:103B50000113F3CFE6CF85E490E0B7010E946B2319
:103B6000D7FC06C0C114D10441F4EC85E4FF05C0C4
:103B7000D194C194D1088DE201C08BE2B70190E0ED
:103B80000E946B2380E32AE0C216D1042CF08F5FE1
:103B9000FAE0CF1AD108F7CFB70190E00E946B236B
:103BA000B701C601C0960E946B2354C1833631F021
:103BB000833779F0833509F056C020C0560132E0D2
:103BC000A30EB11CF6018081898301E010E063013E
:103BD00012C05601F2E0AF0EB11CF601C080D180D8
:103BE00096FE03C0612F70E002C06FEF7FEFC60149
:103BF0000E94E0228C01F92DFF7714C0560122E0CB
:103C0000A20EB11CF601C080D18096FE03C0612FC8
:103C100070E002C06FEF7FEFC6010E94B9228C01F5
:103C2000F92DF0689F2EF3FD1AC0852D90E008173E
:103C30001907A8F4B70180E290E00E946B235A9420
:103C4000F4CFF60197FC859197FE81916F01B70142
:103C500090E00E946B2351105A94015011090115F4
:103C6000110579F7F7C0843611F0893661F55601F0
:103C700097FE09C024E0A20EB11CF601608171819B
:103C8000828193810AC0F2E0AF0EB11CF60160811F
:103C90007181072E000C880B990BF92DFF769F2E52
:103CA00097FF09C090958095709561957F4F8F4FD4
:103CB0009F4FF0689F2E2AE030E0A3010E941B2452
:103CC000C82EC6183FC0092D853721F40F7E2AE083
:103CD00030E01DC0097F8F3691F018F4883559F017
:103CE000C3C0803719F0883711F0BEC0006104FFEF
:103CF00009C0046007C094FE08C0066006C028E042
:103D000030E005C020E130E002C020E132E05601A1
:103D100007FF09C084E0A80EB11CF6016081718123
:103D20008281938108C0F2E0AF0EB11CF601608180
:103D3000718180E090E0A3010E941B24C82EC61868
:103D40000F77902E96FE0BC0092D0E7FC11650F4F2
:103D500094FE0AC092FC08C0092D0E7E05C0DC2C22
:103D6000092D03C0DC2C01C0D12E04FF0DC0FE01C3
:103D7000EC0DF11D8081803311F4097E09C002FF32
:103D800006C0D394D39404C0802F867809F0D394CE
:103D900003FD11C000FF06C01C2DD51480F4150DC5
:103DA0001D190DC0D51458F4B70180E290E00E94AF
:103DB0006B23D394F7CFD51410F45D1801C0512CA8
:103DC00004FF10C0B70180E390E00E946B2302FF64
:103DD00017C001FD03C088E790E002C088E590E0CD
:103DE000B7010CC0802F867859F001FF02C08BE22A
:103DF00001C080E207FD8DE2B70190E00E946B23D5
:103E0000C11638F4B70180E390E00E946B23115093
:103E1000F7CFCA94F301EC0DF11D8081B70190E05A
:103E20000E946B23C110F5CF15C0F4E0F51560F5C5
:103E300084E0581A93FE1FC0011127C02C8523FF70
:103E40002AC008E610E0392D3071932EF8018491D4
:103E5000811124C0552009F4E4CCB70180E290E040
:103E60000E946B235A94F6CFF7018681978126C072
:103E70008FEF9FEF23C0B70180E290E00E946B2399
:103E80005A945110F8CFD8CF512CB701802F90E021
:103E90000E946B23D3CF0CE610E0D5CF9110805257
:103EA000B70190E00E946B230F5F1F4FCFCF23E03D
:103EB000251510F483E0BDCF512CC0CF6096E2E110
:103EC0000C940C209FE088E10FB6F894A89580939D
:103ED00060000FBE9093600083E291E09093E9064A
:103EE0008093E8069093E7068093E6069093EB06AE
:103EF0008093EA060E945C0983EE96E00E94DA1B3A
:103F00000E94FE0F0E945A0A0E94CF0A0E944F0E82
:103F1000A8958091E206811121C080919A038111B8
:103F200025C080919903811129C08091800681115B
:103F30002DC080917F06811135C080911E048111B2
:103F40003BC080918F03882319F310928F030E9446
:103F50000E15A8958091E2068823F9F21092E206E8
:103F60000E94DC1180919A038823D9F210929A035F
:103F70000E94C10D809199038823B9F21092990390
:103F80000E94E90C80918006882399F210928006A5
:103F90008091E8069091E9060E94721480917F0654
:103FA000882359F210927F0683EE96E00E946D09F5
:103FB00080911E04882329F210921E040E94510E43
:103FC000C0CFA29FB001B39FC001A39F700D811D00
:103FD0001124911DB29F700D811D1124911D089512
:103FE0002F923F924F925F926F927F928F929F9209
:103FF000AF92BF92CF92DF92EF92FF920F931F93F7
:10400000CF93DF93CDB7DEB7CA1BDB0B0FB6F894A7
:10401000DEBF0FBECDBF09942A88398848885F84E7
:104020006E847D848C849B84AA84B984C884DF8058
:10403000EE80FD800C811B81AA81B981CE0FD11D3C
:104040000FB6F894DEBF0FBECDBFED0108950E94FC
:104050003B200C941C210E94152158F00E940E2137
:1040600040F029F45F3F29F00C94052151110C9484
:1040700050210C940B210E942D2168F39923B1F358
:10408000552391F3951B550BBB27AA27621773077E
:10409000840738F09F5F5F4F220F331F441FAA1F12
:1040A000A9F335D00E2E3AF0E0E832D091505040CE
:1040B000E695001CCAF72BD0FE2F29D0660F771F7C
:1040C000881FBB1F261737074807AB07B0E809F062
:1040D000BB0B802DBF01FF2793585F4F3AF09E3FE7
:1040E000510578F00C9405210C9450215F3FE4F3C6
:1040F000983ED4F3869577956795B795F7959F5F2A
:10410000C9F7880F911D9695879597F90895E1E075
:10411000660F771F881FBB1F621773078407BA07D4
:1041200020F0621B730B840BBA0BEE1F88F7E0952F
:1041300008950E94352188F09F5798F0B92F99274C
:10414000B751B0F0E1F0660F771F881F991F1AF082
:10415000BA95C9F714C0B13091F00E944F21B1E077
:1041600008950C944F21672F782F8827B85F39F076
:10417000B93FCCF3869577956795B395D9F73EF41B
:1041800090958095709561957F4F8F4F9F4F0895C3
:10419000E89409C097FB3EF49095809570956195E1
:1041A0007F4F8F4F9F4F9923A9F0F92F96E9BB2797
:1041B0009395F695879577956795B795F111F8CF13
:1041C000FAF4BB0F11F460FF1BC06F5F7F4F8F4F7E
:1041D0009F4F16C0882311F096E911C0772321F074
:1041E0009EE8872F762F05C0662371F096E8862F0C
:1041F00070E060E02AF09A95660F771F881FDAF763
:10420000880F9695879597F9089597F99F6780E8A5
:1042100070E060E008959FEF80EC089500240A9418
:104220001616170618060906089500240A94121691
:104230001306140605060895092E0394000C11F4C4
:10424000882352F0BB0F40F4BF2B11F460FF04C071
:104250006F5F7F4F8F4F9F4F089557FD9058440FCA
:10426000551F59F05F3F71F04795880F97FB991FD5
:1042700061F09F3F79F08795089512161306140692
:10428000551FF2CF4695F1DF08C01616170618061F
:10429000991FF1CF86957105610508940895E894FA
:1042A000BB2766277727CB0197F908950E946921DC
:1042B0000C941C210E940E2138F00E94152120F040
:1042C000952311F00C9405210C940B2111240C94CE
:1042D00050210E942D2170F3959FC1F3950F50E05E
:1042E000551F629FF001729FBB27F00DB11D639FA8
:1042F000AA27F00DB11DAA1F649F6627B00DA11D4E
:10430000661F829F2227B00DA11D621F739FB00DF3
:10431000A11D621F839FA00D611D221F749F332763
:10432000A00D611D231F849F600D211D822F762FFC
:104330006A2F11249F5750409AF0F1F088234AF0D9
:10434000EE0FFF1FBB1F661F771F881F9150504045
:10435000A9F79E3F510580F00C9405210C94502143
:104360005F3FE4F3983ED4F3869577956795B795CC
:10437000F795E7959F5FC1F7FE2B880F911D9695E6
:10438000879597F90895FC0188279927E89421914A
:104390002032E9F3293010F02E30C8F32B3241F0EF
:1043A0002D3239F4689404C00E941D23820F911DA0
:1043B000219120532A30C0F31EF4909581959F4F90
:1043C0000895283008F027E03327DA01990F311DCE
:1043D00087FD916000966105710539F432602E5FAA
:1043E0003D9330E32A95E1F708959F3F30F0803800
:1043F0007105610509F03C5F3C5F3D93913008F029
:104400008068911DDF93CF931F930F93FF92EF92DC
:10441000192F987F9695E92F96959695E90FFF2786
:10442000E653FF4F99273327EE24FF24A701E70126
:1044300005900894079428F4360FE71EF81E491FCC
:10444000511D660F771F881F991F0694A1F70590CD
:10445000079428F4E70EF81E491F561FC11D770F59
:10446000881F991F661F0694A1F70590079428F4EA
:10447000F80E491F561FC71FD11D880F991F661FB1
:10448000771F0694A1F70590079420F4490F561F53
:10449000C71FD81F990F661F771F881F0694A9F79B
:1044A00084911095177041F0D695C795579547950B
:1044B000F794E7941A95C1F7E0E7F0E06894159057
:1044C000159135916591959105907FE27395E1186D
:1044D000F10A430B560BC90BD009C0F7E10CF11ED2
:1044E000431F561FC91FD01D7EF4703311F48A95E7
:1044F000E6CFE894015030F0080F0AF400270217C5
:1045000008F4202F2395022F7A3328F079E37D9346
:104510002A95E9F710C07D932A9589F60694979518
:104520006795379517951794E118F10A430B560BC9
:10453000C90BD00998F023957E9173957A3308F0D2
:1045400070E37C932013B8F77E9170617D9330F017
:10455000839571E37D9370E32A95E1F71124EF9041
:10456000FF900F911F91CF91DF91992787FD909533
:104570000895FC010590615070400110D8F78095B6
:1045800090958E0F9F1F089540EE56E00E94EB22FB
:104590000895FB01DC0102C001900D924150504092
:1045A000D8F70895FB01DC014150504030F08D9167
:1045B0000190801919F40020B9F7881B990B089510
:1045C000FC016150704001900110D8F780959095E2
:1045D0008E0F9F1F0895FA01A191B081009719F4E1
:1045E0001097E1F0CD01DC01CD010D90002011F418
:1045F000C00113C0FB012191222319F02015D9F726
:10460000F3CFFB012191201519F41E92119606C0DB
:104610002223C1F70D900020A1F7D001FA01A19348
:10462000B0830895BB274A3031F4992322F4BDE2C8
:10463000909581959F4F0C9426237AE0979F902D1B
:10464000879F802D910D11240895BB27FB015527CD
:10465000AA27880F991FAA1FA41710F0A41B8395DF
:104660005051B9F7A05DAA3308F0A95DA193009756
:1046700079F7B111B1931192CB010C947924A0E098
:10468000B0E0E5E4F3E20C94FA1FFA01238120FD87
:1046900003C080E090E01AC016161706D4F77A011E
:1046A0008C01EB016C01C130D10569F0C7010E949A
:1046B00089248F3FFFEF9F0761F3F60181936F011C
:1046C00021970A9781F7F6011082C801CDB7DEB7AE
:1046D000E8E00C9416200F931F93CF93DF93FB0118
:1046E000238121FD03C08FEF9FEF2CC022FF16C056
:1046F00046815781248135814217530744F4A081B4
:10470000B1819D012F5F3F4F318320838C932681A0
:1047100037812F5F3F4F3783268314C08B01EC0115
:10472000FB010084F185E02D0995892BE1F6D80184
:1047300016968D919C911797019617969C938E9340
:104740001697CE01DF91CF911F910F910895EF92AF
:10475000FF920F931F93CF93DF93DB0113962C915E
:1047600021FF18C08B017C01D0E0C0E0F7018191EE
:104770007F01882361F0D8011896ED91FC9119977B
:10478000B8010995892B91F3DFEFCFEFEFCF8D2F94
:104790009C2F02C08FEF9FEFCDB7DEB7E6E00C9401
:1047A0001820A0E0B0E0E7EDF3E20C94F61F5B0107
:1047B0004A017901D90113962C9121FF1DC0C0E057
:1047C000D0E0C815D905D9F08C016C01CA0CDB1CEE
:1047D000C8010C151D0571F00F5F1F4FD70118960A
:1047E000ED91FC911997B701DC018C910995892B0A
:1047F00079F305C02196E5CF80E090E001C0CE01BD
:10480000CDB7DEB7ECE00C941220A0E0B0E0EBE016
:10481000F4E20C940020AE014B5F5F4FFA0161910E
:104820007191AF018091E8069091E9060E94E51B25
:10483000E2E00C941C20FA01AA27283051F1203123
:1048400081F1E8946F936E7F6E5F7F4F8F4F9F4F24
:10485000AF4FB1E03ED0B4E03CD0670F781F891F66
:104860009A1FA11D680F791F8A1F911DA11D6A0F34
:10487000711D811D911DA11D20D009F468943F91E7
:104880002AE0269F11243019305D3193DEF6CF01E6
:104890000895462F4770405D4193B3E00FD0C9F7AC
:1048A000F6CF462F4F70405D4A3318F0495D31FD19
:1048B0004052419302D0A9F7EACFB4E0A69597956C
:1048C000879577956795BA95C9F700976105710542
:1048D00008959B01AC010A2E06945795479537958C
:1048E0002795BA95C9F7620F731F841F951FA01DE6
:1048F0000895DC01FC01672F71917723E1F732976E
:1049000004C07C916D9370836291AE17BF07C8F3AA
:104910000895CF93DF93EC012B8120FF33C026FF56
:104920000AC02F7B2B838E819F8101969F838E836C
:104930008A8190E029C022FF0FC0E881F98180813F
:10494000082E000C990B009719F420622B831AC0D3
:104950003196F983E8830EC0EA85FB85099597FFB8
:1049600009C02B81019611F080E201C080E1822B09
:104970008B8308C02E813F812F5F3F4F3F832E8363
:10498000992702C08FEF9FEFDF91CF910895F894A0
:02499000FFCF57
:104992006400000300000000040200640000030041
:1049A2000000000402006400000300000000040292
:1049B20000040000000003000000005F14EE140079
:1049C200000400B9026516BE02AE16C6020B17D26B
:1049D20002D515DE027417EA02DB19F602DD17FFB3
:1049E200026B1A08035A1813035C192103471B2F81
:1049F20003E318476976656E20636F6D6D616E64BF
:104A0200277320617267756D656E74287329206142
:104A12007265206E6F74207265636F676E697A6566
:104A2200642E0D0A547970652022636F6D6D616E7C
:104A3200642068656C702220666F722061206C6948
:104A42007374206F662074686520617661696C6199
:104A5200626C6520636F6D6D616E64277320617295
:104A620067756D656E74732E0D0A002220697320BE
:104A72006E6F74207265636F676E697A6564206118
:104A820073206120636F6D6D616E642E0D0A54791F
:104A92007065202268656C702220666F722061202A
:104AA2006C697374206F6620746865206176616931
:104AB2006C61626C6520636F6D6D616E64732E0D47
:104AC2000A003E3E200068656C7000200D0A00411D
:104AD20000420043005D2E0D0A00466F727761723C
:104AE20064206C696D69740D0A0052657665727393
:104AF20065206C696D69740D0A00467265650D0A60
:104B020000252E3366205B6D415D0D0A00252C20A9
:104B1200666F72776172642064726976650D0A004D
:104B2200252C2072657665727365206472697665DC
:104B32000D0A00252C206272616B650D0A00252C7E
:104B420020636F6173740D0A0068656C700076658E
:104B52007273696F6E007365744D61785370656529
:104B620064006765744D61785370656564007365B0
:104B7200744D696E5370656564006765744D696E46
:104B8200537065656400736574537065656400678E
:104B920065745370656564006765744C696D69740A
:104BA2005377007365744D617843757272656E74E4
:104BB200006765744D617843757272656E74006743
:0E4BC200657443757272656E7400312E30009A
:00000001FF
